{
  "_format": "hh-sol-artifact-1",
  "contractName": "SaleTokenTRV",
  "sourceName": "contracts/SaleTokenTRV.sol",
  "abi": [
    {
      "inputs": [
        {
          "internalType": "contract USDTETHPriceQuery",
          "name": "_usdEth",
          "type": "address"
        },
        {
          "internalType": "contract TokenAW3",
          "name": "_tokenContract",
          "type": "address"
        }
      ],
      "stateMutability": "nonpayable",
      "type": "constructor"
    },
    {
      "anonymous": false,
      "inputs": [
        {
          "indexed": false,
          "internalType": "address",
          "name": "_buyer",
          "type": "address"
        },
        {
          "indexed": false,
          "internalType": "uint256",
          "name": "_amount",
          "type": "uint256"
        }
      ],
      "name": "Sell",
      "type": "event"
    },
    {
      "inputs": [
        {
          "internalType": "uint256",
          "name": "_numberOfTokens",
          "type": "uint256"
        }
      ],
      "name": "buyTokens",
      "outputs": [],
      "stateMutability": "payable",
      "type": "function"
    },
    {
      "inputs": [],
      "name": "getTokenSalePriceInWei",
      "outputs": [
        {
          "internalType": "uint256",
          "name": "",
          "type": "uint256"
        }
      ],
      "stateMutability": "view",
      "type": "function"
    },
    {
      "inputs": [],
      "name": "tokenContract",
      "outputs": [
        {
          "internalType": "contract TokenAW3",
          "name": "",
          "type": "address"
        }
      ],
      "stateMutability": "view",
      "type": "function"
    },
    {
      "inputs": [],
      "name": "tokensSold",
      "outputs": [
        {
          "internalType": "uint256",
          "name": "",
          "type": "uint256"
        }
      ],
      "stateMutability": "view",
      "type": "function"
    },
    {
      "inputs": [],
      "name": "usdEth",
      "outputs": [
        {
          "internalType": "contract USDTETHPriceQuery",
          "name": "",
          "type": "address"
        }
      ],
      "stateMutability": "view",
      "type": "function"
    }
  ],
  "bytecode": "0x608060405234801561001057600080fd5b5060405161076c38038061076c8339818101604052810190610032919061016c565b336000806101000a81548173ffffffffffffffffffffffffffffffffffffffff021916908373ffffffffffffffffffffffffffffffffffffffff16021790555081600160006101000a81548173ffffffffffffffffffffffffffffffffffffffff021916908373ffffffffffffffffffffffffffffffffffffffff1602179055508060028190555050506101ac565b600080fd5b600073ffffffffffffffffffffffffffffffffffffffff82169050919050565b60006100f1826100c6565b9050919050565b6000610103826100e6565b9050919050565b610113816100f8565b811461011e57600080fd5b50565b6000815190506101308161010a565b92915050565b6000819050919050565b61014981610136565b811461015457600080fd5b50565b60008151905061016681610140565b92915050565b60008060408385031215610183576101826100c1565b5b600061019185828601610121565b92505060206101a285828601610157565b9150509250929050565b6105b1806101bb6000396000f3fe60806040526004361061003f5760003560e01c80633610724e14610044578063518ab2a81461006057806355a373d61461008b5780637ff9b596146100b6575b600080fd5b61005e600480360381019061005991906102ea565b6100e1565b005b34801561006c57600080fd5b5061007561027d565b6040516100829190610326565b60405180910390f35b34801561009757600080fd5b506100a0610283565b6040516100ad91906103c0565b60405180910390f35b3480156100c257600080fd5b506100cb6102a9565b6040516100d89190610326565b60405180910390f35b6000600254826100f1919061040a565b905080341015610136576040517f08c379a000000000000000000000000000000000000000000000000000000000815260040161012d906104a9565b60405180910390fd5b816003600082825461014891906104c9565b92505081905550600160009054906101000a900473ffffffffffffffffffffffffffffffffffffffff1673ffffffffffffffffffffffffffffffffffffffff166340c10f1933846040518363ffffffff1660e01b81526004016101ac92919061051e565b600060405180830381600087803b1580156101c657600080fd5b505af11580156101da573d6000803e3d6000fd5b50505050600081346101ec9190610547565b9050600081111561023f573373ffffffffffffffffffffffffffffffffffffffff166108fc829081150290604051600060405180830381858888f1935050505015801561023d573d6000803e3d6000fd5b505b7f5e5e995ce3133561afceaa51a9a154d5db228cd7525d34df5185582c18d3df09338460405161027092919061051e565b60405180910390a1505050565b60035481565b600160009054906101000a900473ffffffffffffffffffffffffffffffffffffffff1681565b60025481565b600080fd5b6000819050919050565b6102c7816102b4565b81146102d257600080fd5b50565b6000813590506102e4816102be565b92915050565b600060208284031215610300576102ff6102af565b5b600061030e848285016102d5565b91505092915050565b610320816102b4565b82525050565b600060208201905061033b6000830184610317565b92915050565b600073ffffffffffffffffffffffffffffffffffffffff82169050919050565b6000819050919050565b600061038661038161037c84610341565b610361565b610341565b9050919050565b60006103988261036b565b9050919050565b60006103aa8261038d565b9050919050565b6103ba8161039f565b82525050565b60006020820190506103d560008301846103b1565b92915050565b7f4e487b7100000000000000000000000000000000000000000000000000000000600052601160045260246000fd5b6000610415826102b4565b9150610420836102b4565b925082820261042e816102b4565b91508282048414831517610445576104446103db565b5b5092915050565b600082825260208201905092915050565b7f496e73756666696369656e74204554482073656e740000000000000000000000600082015250565b600061049360158361044c565b915061049e8261045d565b602082019050919050565b600060208201905081810360008301526104c281610486565b9050919050565b60006104d4826102b4565b91506104df836102b4565b92508282019050808211156104f7576104f66103db565b5b92915050565b600061050882610341565b9050919050565b610518816104fd565b82525050565b6000604082019050610533600083018561050f565b6105406020830184610317565b9392505050565b6000610552826102b4565b915061055d836102b4565b9250828203905081811115610575576105746103db565b5b9291505056fea2646970667358221220a4e3a5153ffb3a5e527eded70018df0c3adf28ba39d6d8786f7f56df9900321164736f6c63430008180033",
  "linkReferences": {},
  "deployedLinkReferences": {}
}