{
  "_format": "hh-sol-artifact-1",
  "contractName": "TanglewoodToken",
  "sourceName": "contracts/TanglewoodToken.sol",
  "abi": [
    {
      "inputs": [
        {
          "internalType": "uint256",
          "name": "initialSupply",
          "type": "uint256"
        },
        {
          "internalType": "uint256",
          "name": "_loanAmount",
          "type": "uint256"
        },
        {
          "internalType": "uint256",
          "name": "_participants",
          "type": "uint256"
        },
        {
          "internalType": "uint256",
          "name": "_sharePerParticipant",
          "type": "uint256"
        },
        {
          "internalType": "uint256",
          "name": "_ticketPerParticipant",
          "type": "uint256"
        },
        {
          "internalType": "uint256",
          "name": "_assetUnitUSD",
          "type": "uint256"
        },
        {
          "internalType": "uint256",
          "name": "_numberOfTransactions",
          "type": "uint256"
        },
        {
          "internalType": "uint256",
          "name": "_collateralValue",
          "type": "uint256"
        },
        {
          "internalType": "uint256",
          "name": "_liquidationTimeMonths",
          "type": "uint256"
        },
        {
          "internalType": "uint256",
          "name": "_totalReturn",
          "type": "uint256"
        }
      ],
      "stateMutability": "nonpayable",
      "type": "constructor"
    },
    {
      "inputs": [],
      "name": "AccessControlBadConfirmation",
      "type": "error"
    },
    {
      "inputs": [
        {
          "internalType": "address",
          "name": "account",
          "type": "address"
        },
        {
          "internalType": "bytes32",
          "name": "neededRole",
          "type": "bytes32"
        }
      ],
      "name": "AccessControlUnauthorizedAccount",
      "type": "error"
    },
    {
      "inputs": [
        {
          "internalType": "address",
          "name": "spender",
          "type": "address"
        },
        {
          "internalType": "uint256",
          "name": "allowance",
          "type": "uint256"
        },
        {
          "internalType": "uint256",
          "name": "needed",
          "type": "uint256"
        }
      ],
      "name": "ERC20InsufficientAllowance",
      "type": "error"
    },
    {
      "inputs": [
        {
          "internalType": "address",
          "name": "sender",
          "type": "address"
        },
        {
          "internalType": "uint256",
          "name": "balance",
          "type": "uint256"
        },
        {
          "internalType": "uint256",
          "name": "needed",
          "type": "uint256"
        }
      ],
      "name": "ERC20InsufficientBalance",
      "type": "error"
    },
    {
      "inputs": [
        {
          "internalType": "address",
          "name": "approver",
          "type": "address"
        }
      ],
      "name": "ERC20InvalidApprover",
      "type": "error"
    },
    {
      "inputs": [
        {
          "internalType": "address",
          "name": "receiver",
          "type": "address"
        }
      ],
      "name": "ERC20InvalidReceiver",
      "type": "error"
    },
    {
      "inputs": [
        {
          "internalType": "address",
          "name": "sender",
          "type": "address"
        }
      ],
      "name": "ERC20InvalidSender",
      "type": "error"
    },
    {
      "inputs": [
        {
          "internalType": "address",
          "name": "spender",
          "type": "address"
        }
      ],
      "name": "ERC20InvalidSpender",
      "type": "error"
    },
    {
      "anonymous": false,
      "inputs": [
        {
          "indexed": true,
          "internalType": "address",
          "name": "owner",
          "type": "address"
        },
        {
          "indexed": true,
          "internalType": "address",
          "name": "spender",
          "type": "address"
        },
        {
          "indexed": false,
          "internalType": "uint256",
          "name": "value",
          "type": "uint256"
        }
      ],
      "name": "Approval",
      "type": "event"
    },
    {
      "anonymous": false,
      "inputs": [
        {
          "indexed": true,
          "internalType": "bytes32",
          "name": "role",
          "type": "bytes32"
        },
        {
          "indexed": true,
          "internalType": "bytes32",
          "name": "previousAdminRole",
          "type": "bytes32"
        },
        {
          "indexed": true,
          "internalType": "bytes32",
          "name": "newAdminRole",
          "type": "bytes32"
        }
      ],
      "name": "RoleAdminChanged",
      "type": "event"
    },
    {
      "anonymous": false,
      "inputs": [
        {
          "indexed": true,
          "internalType": "bytes32",
          "name": "role",
          "type": "bytes32"
        },
        {
          "indexed": true,
          "internalType": "address",
          "name": "account",
          "type": "address"
        },
        {
          "indexed": true,
          "internalType": "address",
          "name": "sender",
          "type": "address"
        }
      ],
      "name": "RoleGranted",
      "type": "event"
    },
    {
      "anonymous": false,
      "inputs": [
        {
          "indexed": true,
          "internalType": "bytes32",
          "name": "role",
          "type": "bytes32"
        },
        {
          "indexed": true,
          "internalType": "address",
          "name": "account",
          "type": "address"
        },
        {
          "indexed": true,
          "internalType": "address",
          "name": "sender",
          "type": "address"
        }
      ],
      "name": "RoleRevoked",
      "type": "event"
    },
    {
      "anonymous": false,
      "inputs": [
        {
          "indexed": true,
          "internalType": "address",
          "name": "from",
          "type": "address"
        },
        {
          "indexed": true,
          "internalType": "address",
          "name": "to",
          "type": "address"
        },
        {
          "indexed": false,
          "internalType": "uint256",
          "name": "amount",
          "type": "uint256"
        },
        {
          "indexed": false,
          "internalType": "uint256",
          "name": "timestamp",
          "type": "uint256"
        }
      ],
      "name": "TokensTransferred",
      "type": "event"
    },
    {
      "anonymous": false,
      "inputs": [
        {
          "indexed": true,
          "internalType": "address",
          "name": "from",
          "type": "address"
        },
        {
          "indexed": true,
          "internalType": "address",
          "name": "to",
          "type": "address"
        },
        {
          "indexed": false,
          "internalType": "uint256",
          "name": "value",
          "type": "uint256"
        }
      ],
      "name": "Transfer",
      "type": "event"
    },
    {
      "inputs": [],
      "name": "ADMIN_ROLE",
      "outputs": [
        {
          "internalType": "bytes32",
          "name": "",
          "type": "bytes32"
        }
      ],
      "stateMutability": "view",
      "type": "function"
    },
    {
      "inputs": [],
      "name": "DEFAULT_ADMIN_ROLE",
      "outputs": [
        {
          "internalType": "bytes32",
          "name": "",
          "type": "bytes32"
        }
      ],
      "stateMutability": "view",
      "type": "function"
    },
    {
      "inputs": [],
      "name": "MINTER_ROLE",
      "outputs": [
        {
          "internalType": "bytes32",
          "name": "",
          "type": "bytes32"
        }
      ],
      "stateMutability": "view",
      "type": "function"
    },
    {
      "inputs": [
        {
          "internalType": "address",
          "name": "owner",
          "type": "address"
        },
        {
          "internalType": "address",
          "name": "spender",
          "type": "address"
        }
      ],
      "name": "allowance",
      "outputs": [
        {
          "internalType": "uint256",
          "name": "",
          "type": "uint256"
        }
      ],
      "stateMutability": "view",
      "type": "function"
    },
    {
      "inputs": [
        {
          "internalType": "address",
          "name": "spender",
          "type": "address"
        },
        {
          "internalType": "uint256",
          "name": "value",
          "type": "uint256"
        }
      ],
      "name": "approve",
      "outputs": [
        {
          "internalType": "bool",
          "name": "",
          "type": "bool"
        }
      ],
      "stateMutability": "nonpayable",
      "type": "function"
    },
    {
      "inputs": [
        {
          "internalType": "address",
          "name": "account",
          "type": "address"
        }
      ],
      "name": "balanceOf",
      "outputs": [
        {
          "internalType": "uint256",
          "name": "",
          "type": "uint256"
        }
      ],
      "stateMutability": "view",
      "type": "function"
    },
    {
      "inputs": [],
      "name": "decimals",
      "outputs": [
        {
          "internalType": "uint8",
          "name": "",
          "type": "uint8"
        }
      ],
      "stateMutability": "view",
      "type": "function"
    },
    {
      "inputs": [],
      "name": "getAllTransactions",
      "outputs": [
        {
          "components": [
            {
              "internalType": "address",
              "name": "from",
              "type": "address"
            },
            {
              "internalType": "address",
              "name": "to",
              "type": "address"
            },
            {
              "internalType": "uint256",
              "name": "amount",
              "type": "uint256"
            },
            {
              "internalType": "uint256",
              "name": "timestamp",
              "type": "uint256"
            }
          ],
          "internalType": "struct TanglewoodToken.Transaction[]",
          "name": "",
          "type": "tuple[]"
        }
      ],
      "stateMutability": "view",
      "type": "function"
    },
    {
      "inputs": [],
      "name": "getLoanDetails",
      "outputs": [
        {
          "components": [
            {
              "internalType": "uint256",
              "name": "loanAmount",
              "type": "uint256"
            },
            {
              "internalType": "uint256",
              "name": "participants",
              "type": "uint256"
            },
            {
              "internalType": "uint256",
              "name": "sharePerParticipant",
              "type": "uint256"
            },
            {
              "internalType": "uint256",
              "name": "ticketPerParticipant",
              "type": "uint256"
            },
            {
              "internalType": "uint256",
              "name": "assetUnitUSD",
              "type": "uint256"
            },
            {
              "internalType": "uint256",
              "name": "numberOfTransactions",
              "type": "uint256"
            },
            {
              "internalType": "uint256",
              "name": "collateralValue",
              "type": "uint256"
            },
            {
              "internalType": "uint256",
              "name": "liquidationTimeMonths",
              "type": "uint256"
            },
            {
              "internalType": "uint256",
              "name": "totalReturn",
              "type": "uint256"
            }
          ],
          "internalType": "struct TanglewoodToken.LoanDetails",
          "name": "",
          "type": "tuple"
        }
      ],
      "stateMutability": "view",
      "type": "function"
    },
    {
      "inputs": [
        {
          "internalType": "bytes32",
          "name": "role",
          "type": "bytes32"
        }
      ],
      "name": "getRoleAdmin",
      "outputs": [
        {
          "internalType": "bytes32",
          "name": "",
          "type": "bytes32"
        }
      ],
      "stateMutability": "view",
      "type": "function"
    },
    {
      "inputs": [
        {
          "internalType": "address",
          "name": "account",
          "type": "address"
        }
      ],
      "name": "getTotalReceived",
      "outputs": [
        {
          "internalType": "uint256",
          "name": "",
          "type": "uint256"
        }
      ],
      "stateMutability": "view",
      "type": "function"
    },
    {
      "inputs": [
        {
          "internalType": "address",
          "name": "account",
          "type": "address"
        }
      ],
      "name": "getTotalSent",
      "outputs": [
        {
          "internalType": "uint256",
          "name": "",
          "type": "uint256"
        }
      ],
      "stateMutability": "view",
      "type": "function"
    },
    {
      "inputs": [
        {
          "internalType": "bytes32",
          "name": "role",
          "type": "bytes32"
        },
        {
          "internalType": "address",
          "name": "account",
          "type": "address"
        }
      ],
      "name": "grantRole",
      "outputs": [],
      "stateMutability": "nonpayable",
      "type": "function"
    },
    {
      "inputs": [
        {
          "internalType": "bytes32",
          "name": "role",
          "type": "bytes32"
        },
        {
          "internalType": "address",
          "name": "account",
          "type": "address"
        }
      ],
      "name": "hasRole",
      "outputs": [
        {
          "internalType": "bool",
          "name": "",
          "type": "bool"
        }
      ],
      "stateMutability": "view",
      "type": "function"
    },
    {
      "inputs": [],
      "name": "loanDetails",
      "outputs": [
        {
          "internalType": "uint256",
          "name": "loanAmount",
          "type": "uint256"
        },
        {
          "internalType": "uint256",
          "name": "participants",
          "type": "uint256"
        },
        {
          "internalType": "uint256",
          "name": "sharePerParticipant",
          "type": "uint256"
        },
        {
          "internalType": "uint256",
          "name": "ticketPerParticipant",
          "type": "uint256"
        },
        {
          "internalType": "uint256",
          "name": "assetUnitUSD",
          "type": "uint256"
        },
        {
          "internalType": "uint256",
          "name": "numberOfTransactions",
          "type": "uint256"
        },
        {
          "internalType": "uint256",
          "name": "collateralValue",
          "type": "uint256"
        },
        {
          "internalType": "uint256",
          "name": "liquidationTimeMonths",
          "type": "uint256"
        },
        {
          "internalType": "uint256",
          "name": "totalReturn",
          "type": "uint256"
        }
      ],
      "stateMutability": "view",
      "type": "function"
    },
    {
      "inputs": [
        {
          "internalType": "address",
          "name": "to",
          "type": "address"
        },
        {
          "internalType": "uint256",
          "name": "amount",
          "type": "uint256"
        }
      ],
      "name": "mint",
      "outputs": [],
      "stateMutability": "nonpayable",
      "type": "function"
    },
    {
      "inputs": [],
      "name": "name",
      "outputs": [
        {
          "internalType": "string",
          "name": "",
          "type": "string"
        }
      ],
      "stateMutability": "view",
      "type": "function"
    },
    {
      "inputs": [
        {
          "internalType": "bytes32",
          "name": "role",
          "type": "bytes32"
        },
        {
          "internalType": "address",
          "name": "callerConfirmation",
          "type": "address"
        }
      ],
      "name": "renounceRole",
      "outputs": [],
      "stateMutability": "nonpayable",
      "type": "function"
    },
    {
      "inputs": [
        {
          "internalType": "bytes32",
          "name": "role",
          "type": "bytes32"
        },
        {
          "internalType": "address",
          "name": "account",
          "type": "address"
        }
      ],
      "name": "revokeRole",
      "outputs": [],
      "stateMutability": "nonpayable",
      "type": "function"
    },
    {
      "inputs": [
        {
          "internalType": "bytes4",
          "name": "interfaceId",
          "type": "bytes4"
        }
      ],
      "name": "supportsInterface",
      "outputs": [
        {
          "internalType": "bool",
          "name": "",
          "type": "bool"
        }
      ],
      "stateMutability": "view",
      "type": "function"
    },
    {
      "inputs": [],
      "name": "symbol",
      "outputs": [
        {
          "internalType": "string",
          "name": "",
          "type": "string"
        }
      ],
      "stateMutability": "view",
      "type": "function"
    },
    {
      "inputs": [],
      "name": "totalSupply",
      "outputs": [
        {
          "internalType": "uint256",
          "name": "",
          "type": "uint256"
        }
      ],
      "stateMutability": "view",
      "type": "function"
    },
    {
      "inputs": [],
      "name": "totalTokensTransferred",
      "outputs": [
        {
          "internalType": "uint256",
          "name": "",
          "type": "uint256"
        }
      ],
      "stateMutability": "view",
      "type": "function"
    },
    {
      "inputs": [
        {
          "internalType": "address",
          "name": "recipient",
          "type": "address"
        },
        {
          "internalType": "uint256",
          "name": "amount",
          "type": "uint256"
        }
      ],
      "name": "transfer",
      "outputs": [
        {
          "internalType": "bool",
          "name": "",
          "type": "bool"
        }
      ],
      "stateMutability": "nonpayable",
      "type": "function"
    },
    {
      "inputs": [
        {
          "internalType": "address",
          "name": "from",
          "type": "address"
        },
        {
          "internalType": "address",
          "name": "to",
          "type": "address"
        },
        {
          "internalType": "uint256",
          "name": "value",
          "type": "uint256"
        }
      ],
      "name": "transferFrom",
      "outputs": [
        {
          "internalType": "bool",
          "name": "",
          "type": "bool"
        }
      ],
      "stateMutability": "nonpayable",
      "type": "function"
    },
    {
      "inputs": [
        {
          "internalType": "uint256",
          "name": "_loanAmount",
          "type": "uint256"
        },
        {
          "internalType": "uint256",
          "name": "_participants",
          "type": "uint256"
        },
        {
          "internalType": "uint256",
          "name": "_sharePerParticipant",
          "type": "uint256"
        },
        {
          "internalType": "uint256",
          "name": "_ticketPerParticipant",
          "type": "uint256"
        },
        {
          "internalType": "uint256",
          "name": "_assetUnitUSD",
          "type": "uint256"
        },
        {
          "internalType": "uint256",
          "name": "_numberOfTransactions",
          "type": "uint256"
        },
        {
          "internalType": "uint256",
          "name": "_collateralValue",
          "type": "uint256"
        },
        {
          "internalType": "uint256",
          "name": "_liquidationTimeMonths",
          "type": "uint256"
        },
        {
          "internalType": "uint256",
          "name": "_totalReturn",
          "type": "uint256"
        }
      ],
      "name": "updateLoanDetails",
      "outputs": [],
      "stateMutability": "nonpayable",
      "type": "function"
    }
  ],
  "bytecode": "0x60806040523480156200001157600080fd5b506040516200303c3803806200303c83398181016040528101906200003791906200067b565b6040518060400160405280602081526020017f54616e676c65776f6f6420526163717565742056696c6c61676520546f6b656e8152506040518060400160405280600381526020017f54525600000000000000000000000000000000000000000000000000000000008152508160039081620000b49190620009e1565b508060049081620000c69190620009e1565b505050620000de6000801b336200020760201b60201c565b50620001117f9f2df0fed2c77648de5860a4cc508cd0818c85b8b8a1ab4ceeef8d981c8956a6336200020760201b60201c565b50620001447fa49807205ce4d355092ef5a8a18f56e8913cf4a201fbe287825b095693c21775336200020760201b60201c565b5062000157338b6200030b60201b60201c565b6040518061012001604052808a8152602001898152602001888152602001878152602001868152602001858152602001848152602001838152602001828152506006600082015181600001556020820151816001015560408201518160020155606082015181600301556080820151816004015560a0820151816005015560c0820151816006015560e0820151816007015561010082015181600801559050505050505050505050505062000bff565b60006200021b83836200039860201b60201c565b620003005760016005600085815260200190815260200160002060000160008473ffffffffffffffffffffffffffffffffffffffff1673ffffffffffffffffffffffffffffffffffffffff16815260200190815260200160002060006101000a81548160ff0219169083151502179055506200029c6200040360201b60201c565b73ffffffffffffffffffffffffffffffffffffffff168273ffffffffffffffffffffffffffffffffffffffff16847f2f8788117e7eff1d82e926ec794901d17c78024a50270940304540a733656f0d60405160405180910390a46001905062000305565b600090505b92915050565b600073ffffffffffffffffffffffffffffffffffffffff168273ffffffffffffffffffffffffffffffffffffffff1603620003805760006040517fec442f0500000000000000000000000000000000000000000000000000000000815260040162000377919062000b0d565b60405180910390fd5b62000394600083836200040b60201b60201c565b5050565b60006005600084815260200190815260200160002060000160008373ffffffffffffffffffffffffffffffffffffffff1673ffffffffffffffffffffffffffffffffffffffff16815260200190815260200160002060009054906101000a900460ff16905092915050565b600033905090565b600073ffffffffffffffffffffffffffffffffffffffff168373ffffffffffffffffffffffffffffffffffffffff16036200046157806002600082825462000454919062000b59565b9250508190555062000537565b60008060008573ffffffffffffffffffffffffffffffffffffffff1673ffffffffffffffffffffffffffffffffffffffff16815260200190815260200160002054905081811015620004f0578381836040517fe450d38c000000000000000000000000000000000000000000000000000000008152600401620004e79392919062000ba5565b60405180910390fd5b8181036000808673ffffffffffffffffffffffffffffffffffffffff1673ffffffffffffffffffffffffffffffffffffffff16815260200190815260200160002081905550505b600073ffffffffffffffffffffffffffffffffffffffff168273ffffffffffffffffffffffffffffffffffffffff1603620005825780600260008282540392505081905550620005cf565b806000808473ffffffffffffffffffffffffffffffffffffffff1673ffffffffffffffffffffffffffffffffffffffff168152602001908152602001600020600082825401925050819055505b8173ffffffffffffffffffffffffffffffffffffffff168373ffffffffffffffffffffffffffffffffffffffff167fddf252ad1be2c89b69c2b068fc378daa952ba7f163c4a11628f55a4df523b3ef836040516200062e919062000be2565b60405180910390a3505050565b600080fd5b6000819050919050565b620006558162000640565b81146200066157600080fd5b50565b60008151905062000675816200064a565b92915050565b6000806000806000806000806000806101408b8d031215620006a257620006a16200063b565b5b6000620006b28d828e0162000664565b9a50506020620006c58d828e0162000664565b9950506040620006d88d828e0162000664565b9850506060620006eb8d828e0162000664565b9750506080620006fe8d828e0162000664565b96505060a0620007118d828e0162000664565b95505060c0620007248d828e0162000664565b94505060e0620007378d828e0162000664565b9350506101006200074b8d828e0162000664565b9250506101206200075f8d828e0162000664565b9150509295989b9194979a5092959850565b600081519050919050565b7f4e487b7100000000000000000000000000000000000000000000000000000000600052604160045260246000fd5b7f4e487b7100000000000000000000000000000000000000000000000000000000600052602260045260246000fd5b60006002820490506001821680620007f357607f821691505b602082108103620008095762000808620007ab565b5b50919050565b60008190508160005260206000209050919050565b60006020601f8301049050919050565b600082821b905092915050565b600060088302620008737fffffffffffffffffffffffffffffffffffffffffffffffffffffffffffffffff8262000834565b6200087f868362000834565b95508019841693508086168417925050509392505050565b6000819050919050565b6000620008c2620008bc620008b68462000640565b62000897565b62000640565b9050919050565b6000819050919050565b620008de83620008a1565b620008f6620008ed82620008c9565b84845462000841565b825550505050565b600090565b6200090d620008fe565b6200091a818484620008d3565b505050565b5b8181101562000942576200093660008262000903565b60018101905062000920565b5050565b601f82111562000991576200095b816200080f565b620009668462000824565b8101602085101562000976578190505b6200098e620009858562000824565b8301826200091f565b50505b505050565b600082821c905092915050565b6000620009b66000198460080262000996565b1980831691505092915050565b6000620009d18383620009a3565b9150826002028217905092915050565b620009ec8262000771565b67ffffffffffffffff81111562000a085762000a076200077c565b5b62000a148254620007da565b62000a2182828562000946565b600060209050601f83116001811462000a59576000841562000a44578287015190505b62000a508582620009c3565b86555062000ac0565b601f19841662000a69866200080f565b60005b8281101562000a935784890151825560018201915060208501945060208101905062000a6c565b8683101562000ab3578489015162000aaf601f891682620009a3565b8355505b6001600288020188555050505b505050505050565b600073ffffffffffffffffffffffffffffffffffffffff82169050919050565b600062000af58262000ac8565b9050919050565b62000b078162000ae8565b82525050565b600060208201905062000b24600083018462000afc565b92915050565b7f4e487b7100000000000000000000000000000000000000000000000000000000600052601160045260246000fd5b600062000b668262000640565b915062000b738362000640565b925082820190508082111562000b8e5762000b8d62000b2a565b5b92915050565b62000b9f8162000640565b82525050565b600060608201905062000bbc600083018662000afc565b62000bcb602083018562000b94565b62000bda604083018462000b94565b949350505050565b600060208201905062000bf9600083018462000b94565b92915050565b61242d8062000c0f6000396000f3fe608060405234801561001057600080fd5b506004361061018e5760003560e01c806375b238fc116100de578063a217fddf11610097578063d539139311610071578063d5391393146104c9578063d547741f146104e7578063dd62ed3e14610503578063ed7d506c146105335761018e565b8063a217fddf1461045d578063a3b9e39d1461047b578063a9059cbb146104995761018e565b806375b238fc1461036b578063806c0b2b1461038957806385823d0c146103b957806391d14854146103e957806395cb741d1461041957806395d89b411461043f5761018e565b80632701ed331161014b578063313ce56711610125578063313ce567146102e557806336568abe1461030357806340c10f191461031f57806370a082311461033b5761018e565b80632701ed331461028f57806327506f53146102ab5780632f2ff15d146102c95761018e565b806301ffc9a71461019357806306fdde03146101c3578063095ea7b3146101e157806318160ddd1461021157806323b872dd1461022f578063248a9ca31461025f575b600080fd5b6101ad60048036038101906101a89190611b3c565b610551565b6040516101ba9190611b84565b60405180910390f35b6101cb6105cb565b6040516101d89190611c2f565b60405180910390f35b6101fb60048036038101906101f69190611ce5565b61065d565b6040516102089190611b84565b60405180910390f35b610219610680565b6040516102269190611d34565b60405180910390f35b61024960048036038101906102449190611d4f565b61068a565b6040516102569190611b84565b60405180910390f35b61027960048036038101906102749190611dd8565b6106b9565b6040516102869190611e14565b60405180910390f35b6102a960048036038101906102a49190611e2f565b6106d9565b005b6102b36107af565b6040516102c0919061201b565b60405180910390f35b6102e360048036038101906102de919061203d565b6108ce565b005b6102ed6108f0565b6040516102fa9190612099565b60405180910390f35b61031d6004803603810190610318919061203d565b6108f9565b005b61033960048036038101906103349190611ce5565b610974565b005b610355600480360381019061035091906120b4565b610ba1565b6040516103629190611d34565b60405180910390f35b610373610be9565b6040516103809190611e14565b60405180910390f35b6103a3600480360381019061039e91906120b4565b610c0d565b6040516103b09190611d34565b60405180910390f35b6103d360048036038101906103ce91906120b4565b610c56565b6040516103e09190611d34565b60405180910390f35b61040360048036038101906103fe919061203d565b610c9f565b6040516104109190611b84565b60405180910390f35b610421610d0a565b604051610436999897969594939291906120e1565b60405180910390f35b610447610d46565b6040516104549190611c2f565b60405180910390f35b610465610dd8565b6040516104729190611e14565b60405180910390f35b610483610ddf565b6040516104909190612225565b60405180910390f35b6104b360048036038101906104ae9190611ce5565b610e54565b6040516104c09190611b84565b60405180910390f35b6104d16110c9565b6040516104de9190611e14565b60405180910390f35b61050160048036038101906104fc919061203d565b6110ed565b005b61051d60048036038101906105189190612241565b61110f565b60405161052a9190611d34565b60405180910390f35b61053b611196565b6040516105489190611d34565b60405180910390f35b60007f7965db0b000000000000000000000000000000000000000000000000000000007bffffffffffffffffffffffffffffffffffffffffffffffffffffffff1916827bffffffffffffffffffffffffffffffffffffffffffffffffffffffff191614806105c457506105c38261119c565b5b9050919050565b6060600380546105da906122b0565b80601f0160208091040260200160405190810160405280929190818152602001828054610606906122b0565b80156106535780601f1061062857610100808354040283529160200191610653565b820191906000526020600020905b81548152906001019060200180831161063657829003601f168201915b5050505050905090565b600080610668611206565b905061067581858561120e565b600191505092915050565b6000600254905090565b600080610695611206565b90506106a2858285611220565b6106ad8585856112b4565b60019150509392505050565b600060056000838152602001908152602001600020600101549050919050565b7fa49807205ce4d355092ef5a8a18f56e8913cf4a201fbe287825b095693c21775610703816113a8565b6040518061012001604052808b81526020018a8152602001898152602001888152602001878152602001868152602001858152602001848152602001838152506006600082015181600001556020820151816001015560408201518160020155606082015181600301556080820151816004015560a0820151816005015560c0820151816006015560e08201518160070155610100820151816008015590505050505050505050505050565b6060600f805480602002602001604051908101604052809291908181526020016000905b828210156108c557838290600052602060002090600402016040518060800160405290816000820160009054906101000a900473ffffffffffffffffffffffffffffffffffffffff1673ffffffffffffffffffffffffffffffffffffffff1673ffffffffffffffffffffffffffffffffffffffff1681526020016001820160009054906101000a900473ffffffffffffffffffffffffffffffffffffffff1673ffffffffffffffffffffffffffffffffffffffff1673ffffffffffffffffffffffffffffffffffffffff16815260200160028201548152602001600382015481525050815260200190600101906107d3565b50505050905090565b6108d7826106b9565b6108e0816113a8565b6108ea83836113bc565b50505050565b60006001905090565b610901611206565b73ffffffffffffffffffffffffffffffffffffffff168173ffffffffffffffffffffffffffffffffffffffff1614610965576040517f6697b23200000000000000000000000000000000000000000000000000000000815260040160405180910390fd5b61096f82826114ae565b505050565b7f9f2df0fed2c77648de5860a4cc508cd0818c85b8b8a1ab4ceeef8d981c8956a661099e816113a8565b6109a883836115a1565b8273ffffffffffffffffffffffffffffffffffffffff16600073ffffffffffffffffffffffffffffffffffffffff167f822a0f1c29fca2c743650969736c315e9c7dc38972549bc35637169f07de97698442604051610a089291906122e1565b60405180910390a381601160008573ffffffffffffffffffffffffffffffffffffffff1673ffffffffffffffffffffffffffffffffffffffff1681526020019081526020016000206000828254610a5f9190612339565b925050819055508160126000828254610a789190612339565b92505081905550600f6040518060800160405280600073ffffffffffffffffffffffffffffffffffffffff1681526020018573ffffffffffffffffffffffffffffffffffffffff16815260200184815260200142815250908060018154018082558091505060019003906000526020600020906004020160009091909190915060008201518160000160006101000a81548173ffffffffffffffffffffffffffffffffffffffff021916908373ffffffffffffffffffffffffffffffffffffffff16021790555060208201518160010160006101000a81548173ffffffffffffffffffffffffffffffffffffffff021916908373ffffffffffffffffffffffffffffffffffffffff16021790555060408201518160020155606082015181600301555050505050565b60008060008373ffffffffffffffffffffffffffffffffffffffff1673ffffffffffffffffffffffffffffffffffffffff168152602001908152602001600020549050919050565b7fa49807205ce4d355092ef5a8a18f56e8913cf4a201fbe287825b095693c2177581565b6000601060008373ffffffffffffffffffffffffffffffffffffffff1673ffffffffffffffffffffffffffffffffffffffff168152602001908152602001600020549050919050565b6000601160008373ffffffffffffffffffffffffffffffffffffffff1673ffffffffffffffffffffffffffffffffffffffff168152602001908152602001600020549050919050565b60006005600084815260200190815260200160002060000160008373ffffffffffffffffffffffffffffffffffffffff1673ffffffffffffffffffffffffffffffffffffffff16815260200190815260200160002060009054906101000a900460ff16905092915050565b60068060000154908060010154908060020154908060030154908060040154908060050154908060060154908060070154908060080154905089565b606060048054610d55906122b0565b80601f0160208091040260200160405190810160405280929190818152602001828054610d81906122b0565b8015610dce5780601f10610da357610100808354040283529160200191610dce565b820191906000526020600020905b815481529060010190602001808311610db157829003601f168201915b5050505050905090565b6000801b81565b610de7611a93565b6006604051806101200160405290816000820154815260200160018201548152602001600282015481526020016003820154815260200160048201548152602001600582015481526020016006820154815260200160078201548152602001600882015481525050905090565b600080610e5f611206565b90506000610e6d8585611623565b905080156110be578473ffffffffffffffffffffffffffffffffffffffff168273ffffffffffffffffffffffffffffffffffffffff167f822a0f1c29fca2c743650969736c315e9c7dc38972549bc35637169f07de97698642604051610ed49291906122e1565b60405180910390a383601060008473ffffffffffffffffffffffffffffffffffffffff1673ffffffffffffffffffffffffffffffffffffffff1681526020019081526020016000206000828254610f2b9190612339565b9250508190555083601160008773ffffffffffffffffffffffffffffffffffffffff1673ffffffffffffffffffffffffffffffffffffffff1681526020019081526020016000206000828254610f819190612339565b925050819055508360126000828254610f9a9190612339565b92505081905550600f60405180608001604052808473ffffffffffffffffffffffffffffffffffffffff1681526020018773ffffffffffffffffffffffffffffffffffffffff16815260200186815260200142815250908060018154018082558091505060019003906000526020600020906004020160009091909190915060008201518160000160006101000a81548173ffffffffffffffffffffffffffffffffffffffff021916908373ffffffffffffffffffffffffffffffffffffffff16021790555060208201518160010160006101000a81548173ffffffffffffffffffffffffffffffffffffffff021916908373ffffffffffffffffffffffffffffffffffffffff160217905550604082015181600201556060820151816003015550505b809250505092915050565b7f9f2df0fed2c77648de5860a4cc508cd0818c85b8b8a1ab4ceeef8d981c8956a681565b6110f6826106b9565b6110ff816113a8565b61110983836114ae565b50505050565b6000600160008473ffffffffffffffffffffffffffffffffffffffff1673ffffffffffffffffffffffffffffffffffffffff16815260200190815260200160002060008373ffffffffffffffffffffffffffffffffffffffff1673ffffffffffffffffffffffffffffffffffffffff16815260200190815260200160002054905092915050565b60125481565b60007f01ffc9a7000000000000000000000000000000000000000000000000000000007bffffffffffffffffffffffffffffffffffffffffffffffffffffffff1916827bffffffffffffffffffffffffffffffffffffffffffffffffffffffff1916149050919050565b600033905090565b61121b8383836001611646565b505050565b600061122c848461110f565b90507fffffffffffffffffffffffffffffffffffffffffffffffffffffffffffffffff81146112ae578181101561129e578281836040517ffb8f41b20000000000000000000000000000000000000000000000000000000081526004016112959392919061237c565b60405180910390fd5b6112ad84848484036000611646565b5b50505050565b600073ffffffffffffffffffffffffffffffffffffffff168373ffffffffffffffffffffffffffffffffffffffff16036113265760006040517f96c6fd1e00000000000000000000000000000000000000000000000000000000815260040161131d91906123b3565b60405180910390fd5b600073ffffffffffffffffffffffffffffffffffffffff168273ffffffffffffffffffffffffffffffffffffffff16036113985760006040517fec442f0500000000000000000000000000000000000000000000000000000000815260040161138f91906123b3565b60405180910390fd5b6113a383838361181d565b505050565b6113b9816113b4611206565b611a42565b50565b60006113c88383610c9f565b6114a35760016005600085815260200190815260200160002060000160008473ffffffffffffffffffffffffffffffffffffffff1673ffffffffffffffffffffffffffffffffffffffff16815260200190815260200160002060006101000a81548160ff021916908315150217905550611440611206565b73ffffffffffffffffffffffffffffffffffffffff168273ffffffffffffffffffffffffffffffffffffffff16847f2f8788117e7eff1d82e926ec794901d17c78024a50270940304540a733656f0d60405160405180910390a4600190506114a8565b600090505b92915050565b60006114ba8383610c9f565b156115965760006005600085815260200190815260200160002060000160008473ffffffffffffffffffffffffffffffffffffffff1673ffffffffffffffffffffffffffffffffffffffff16815260200190815260200160002060006101000a81548160ff021916908315150217905550611533611206565b73ffffffffffffffffffffffffffffffffffffffff168273ffffffffffffffffffffffffffffffffffffffff16847ff6391f5c32d9c69d2a47ea670b442974b53935d1edc7fd64eb21e047a839171b60405160405180910390a46001905061159b565b600090505b92915050565b600073ffffffffffffffffffffffffffffffffffffffff168273ffffffffffffffffffffffffffffffffffffffff16036116135760006040517fec442f0500000000000000000000000000000000000000000000000000000000815260040161160a91906123b3565b60405180910390fd5b61161f6000838361181d565b5050565b60008061162e611206565b905061163b8185856112b4565b600191505092915050565b600073ffffffffffffffffffffffffffffffffffffffff168473ffffffffffffffffffffffffffffffffffffffff16036116b85760006040517fe602df050000000000000000000000000000000000000000000000000000000081526004016116af91906123b3565b60405180910390fd5b600073ffffffffffffffffffffffffffffffffffffffff168373ffffffffffffffffffffffffffffffffffffffff160361172a5760006040517f94280d6200000000000000000000000000000000000000000000000000000000815260040161172191906123b3565b60405180910390fd5b81600160008673ffffffffffffffffffffffffffffffffffffffff1673ffffffffffffffffffffffffffffffffffffffff16815260200190815260200160002060008573ffffffffffffffffffffffffffffffffffffffff1673ffffffffffffffffffffffffffffffffffffffff168152602001908152602001600020819055508015611817578273ffffffffffffffffffffffffffffffffffffffff168473ffffffffffffffffffffffffffffffffffffffff167f8c5be1e5ebec7d5bd14f71427d1e84f3dd0314c0f7b2291e5b200ac8c7c3b9258460405161180e9190611d34565b60405180910390a35b50505050565b600073ffffffffffffffffffffffffffffffffffffffff168373ffffffffffffffffffffffffffffffffffffffff160361186f5780600260008282546118639190612339565b92505081905550611942565b60008060008573ffffffffffffffffffffffffffffffffffffffff1673ffffffffffffffffffffffffffffffffffffffff168152602001908152602001600020549050818110156118fb578381836040517fe450d38c0000000000000000000000000000000000000000000000000000000081526004016118f29392919061237c565b60405180910390fd5b8181036000808673ffffffffffffffffffffffffffffffffffffffff1673ffffffffffffffffffffffffffffffffffffffff16815260200190815260200160002081905550505b600073ffffffffffffffffffffffffffffffffffffffff168273ffffffffffffffffffffffffffffffffffffffff160361198b57806002600082825403925050819055506119d8565b806000808473ffffffffffffffffffffffffffffffffffffffff1673ffffffffffffffffffffffffffffffffffffffff168152602001908152602001600020600082825401925050819055505b8173ffffffffffffffffffffffffffffffffffffffff168373ffffffffffffffffffffffffffffffffffffffff167fddf252ad1be2c89b69c2b068fc378daa952ba7f163c4a11628f55a4df523b3ef83604051611a359190611d34565b60405180910390a3505050565b611a4c8282610c9f565b611a8f5780826040517fe2517d3f000000000000000000000000000000000000000000000000000000008152600401611a869291906123ce565b60405180910390fd5b5050565b6040518061012001604052806000815260200160008152602001600081526020016000815260200160008152602001600081526020016000815260200160008152602001600081525090565b600080fd5b60007fffffffff0000000000000000000000000000000000000000000000000000000082169050919050565b611b1981611ae4565b8114611b2457600080fd5b50565b600081359050611b3681611b10565b92915050565b600060208284031215611b5257611b51611adf565b5b6000611b6084828501611b27565b91505092915050565b60008115159050919050565b611b7e81611b69565b82525050565b6000602082019050611b996000830184611b75565b92915050565b600081519050919050565b600082825260208201905092915050565b60005b83811015611bd9578082015181840152602081019050611bbe565b60008484015250505050565b6000601f19601f8301169050919050565b6000611c0182611b9f565b611c0b8185611baa565b9350611c1b818560208601611bbb565b611c2481611be5565b840191505092915050565b60006020820190508181036000830152611c498184611bf6565b905092915050565b600073ffffffffffffffffffffffffffffffffffffffff82169050919050565b6000611c7c82611c51565b9050919050565b611c8c81611c71565b8114611c9757600080fd5b50565b600081359050611ca981611c83565b92915050565b6000819050919050565b611cc281611caf565b8114611ccd57600080fd5b50565b600081359050611cdf81611cb9565b92915050565b60008060408385031215611cfc57611cfb611adf565b5b6000611d0a85828601611c9a565b9250506020611d1b85828601611cd0565b9150509250929050565b611d2e81611caf565b82525050565b6000602082019050611d496000830184611d25565b92915050565b600080600060608486031215611d6857611d67611adf565b5b6000611d7686828701611c9a565b9350506020611d8786828701611c9a565b9250506040611d9886828701611cd0565b9150509250925092565b6000819050919050565b611db581611da2565b8114611dc057600080fd5b50565b600081359050611dd281611dac565b92915050565b600060208284031215611dee57611ded611adf565b5b6000611dfc84828501611dc3565b91505092915050565b611e0e81611da2565b82525050565b6000602082019050611e296000830184611e05565b92915050565b60008060008060008060008060006101208a8c031215611e5257611e51611adf565b5b6000611e608c828d01611cd0565b9950506020611e718c828d01611cd0565b9850506040611e828c828d01611cd0565b9750506060611e938c828d01611cd0565b9650506080611ea48c828d01611cd0565b95505060a0611eb58c828d01611cd0565b94505060c0611ec68c828d01611cd0565b93505060e0611ed78c828d01611cd0565b925050610100611ee98c828d01611cd0565b9150509295985092959850929598565b600081519050919050565b600082825260208201905092915050565b6000819050602082019050919050565b611f2e81611c71565b82525050565b611f3d81611caf565b82525050565b608082016000820151611f596000850182611f25565b506020820151611f6c6020850182611f25565b506040820151611f7f6040850182611f34565b506060820151611f926060850182611f34565b50505050565b6000611fa48383611f43565b60808301905092915050565b6000602082019050919050565b6000611fc882611ef9565b611fd28185611f04565b9350611fdd83611f15565b8060005b8381101561200e578151611ff58882611f98565b975061200083611fb0565b925050600181019050611fe1565b5085935050505092915050565b600060208201905081810360008301526120358184611fbd565b905092915050565b6000806040838503121561205457612053611adf565b5b600061206285828601611dc3565b925050602061207385828601611c9a565b9150509250929050565b600060ff82169050919050565b6120938161207d565b82525050565b60006020820190506120ae600083018461208a565b92915050565b6000602082840312156120ca576120c9611adf565b5b60006120d884828501611c9a565b91505092915050565b6000610120820190506120f7600083018c611d25565b612104602083018b611d25565b612111604083018a611d25565b61211e6060830189611d25565b61212b6080830188611d25565b61213860a0830187611d25565b61214560c0830186611d25565b61215260e0830185611d25565b612160610100830184611d25565b9a9950505050505050505050565b610120820160008201516121856000850182611f34565b5060208201516121986020850182611f34565b5060408201516121ab6040850182611f34565b5060608201516121be6060850182611f34565b5060808201516121d16080850182611f34565b5060a08201516121e460a0850182611f34565b5060c08201516121f760c0850182611f34565b5060e082015161220a60e0850182611f34565b5061010082015161221f610100850182611f34565b50505050565b60006101208201905061223b600083018461216e565b92915050565b6000806040838503121561225857612257611adf565b5b600061226685828601611c9a565b925050602061227785828601611c9a565b9150509250929050565b7f4e487b7100000000000000000000000000000000000000000000000000000000600052602260045260246000fd5b600060028204905060018216806122c857607f821691505b6020821081036122db576122da612281565b5b50919050565b60006040820190506122f66000830185611d25565b6123036020830184611d25565b9392505050565b7f4e487b7100000000000000000000000000000000000000000000000000000000600052601160045260246000fd5b600061234482611caf565b915061234f83611caf565b92508282019050808211156123675761236661230a565b5b92915050565b61237681611c71565b82525050565b6000606082019050612391600083018661236d565b61239e6020830185611d25565b6123ab6040830184611d25565b949350505050565b60006020820190506123c8600083018461236d565b92915050565b60006040820190506123e3600083018561236d565b6123f06020830184611e05565b939250505056fea2646970667358221220e8a4c7134504a901b2eb93868222efd16303cae46982ac1e03d347f2e4955e1d64736f6c63430008140033",
  "linkReferences": {},
  "deployedLinkReferences": {}
}