{
  "_format": "hh-sol-artifact-1",
  "contractName": "TokenAW3",
  "sourceName": "contracts/TokenAW3.sol",
  "abi": [
    {
      "inputs": [
        {
          "internalType": "contract USDTETHPriceQuery",
          "name": "_usdEth",
          "type": "address"
        }
      ],
      "stateMutability": "nonpayable",
      "type": "constructor"
    },
    {
      "inputs": [],
      "name": "AccessControlBadConfirmation",
      "type": "error"
    },
    {
      "inputs": [
        {
          "internalType": "address",
          "name": "account",
          "type": "address"
        },
        {
          "internalType": "bytes32",
          "name": "neededRole",
          "type": "bytes32"
        }
      ],
      "name": "AccessControlUnauthorizedAccount",
      "type": "error"
    },
    {
      "inputs": [
        {
          "internalType": "address",
          "name": "spender",
          "type": "address"
        },
        {
          "internalType": "uint256",
          "name": "allowance",
          "type": "uint256"
        },
        {
          "internalType": "uint256",
          "name": "needed",
          "type": "uint256"
        }
      ],
      "name": "ERC20InsufficientAllowance",
      "type": "error"
    },
    {
      "inputs": [
        {
          "internalType": "address",
          "name": "sender",
          "type": "address"
        },
        {
          "internalType": "uint256",
          "name": "balance",
          "type": "uint256"
        },
        {
          "internalType": "uint256",
          "name": "needed",
          "type": "uint256"
        }
      ],
      "name": "ERC20InsufficientBalance",
      "type": "error"
    },
    {
      "inputs": [
        {
          "internalType": "address",
          "name": "approver",
          "type": "address"
        }
      ],
      "name": "ERC20InvalidApprover",
      "type": "error"
    },
    {
      "inputs": [
        {
          "internalType": "address",
          "name": "receiver",
          "type": "address"
        }
      ],
      "name": "ERC20InvalidReceiver",
      "type": "error"
    },
    {
      "inputs": [
        {
          "internalType": "address",
          "name": "sender",
          "type": "address"
        }
      ],
      "name": "ERC20InvalidSender",
      "type": "error"
    },
    {
      "inputs": [
        {
          "internalType": "address",
          "name": "spender",
          "type": "address"
        }
      ],
      "name": "ERC20InvalidSpender",
      "type": "error"
    },
    {
      "anonymous": false,
      "inputs": [
        {
          "indexed": true,
          "internalType": "address",
          "name": "owner",
          "type": "address"
        },
        {
          "indexed": true,
          "internalType": "address",
          "name": "spender",
          "type": "address"
        },
        {
          "indexed": false,
          "internalType": "uint256",
          "name": "value",
          "type": "uint256"
        }
      ],
      "name": "Approval",
      "type": "event"
    },
    {
      "anonymous": false,
      "inputs": [
        {
          "indexed": true,
          "internalType": "bytes32",
          "name": "role",
          "type": "bytes32"
        },
        {
          "indexed": true,
          "internalType": "bytes32",
          "name": "previousAdminRole",
          "type": "bytes32"
        },
        {
          "indexed": true,
          "internalType": "bytes32",
          "name": "newAdminRole",
          "type": "bytes32"
        }
      ],
      "name": "RoleAdminChanged",
      "type": "event"
    },
    {
      "anonymous": false,
      "inputs": [
        {
          "indexed": true,
          "internalType": "bytes32",
          "name": "role",
          "type": "bytes32"
        },
        {
          "indexed": true,
          "internalType": "address",
          "name": "account",
          "type": "address"
        },
        {
          "indexed": true,
          "internalType": "address",
          "name": "sender",
          "type": "address"
        }
      ],
      "name": "RoleGranted",
      "type": "event"
    },
    {
      "anonymous": false,
      "inputs": [
        {
          "indexed": true,
          "internalType": "bytes32",
          "name": "role",
          "type": "bytes32"
        },
        {
          "indexed": true,
          "internalType": "address",
          "name": "account",
          "type": "address"
        },
        {
          "indexed": true,
          "internalType": "address",
          "name": "sender",
          "type": "address"
        }
      ],
      "name": "RoleRevoked",
      "type": "event"
    },
    {
      "anonymous": false,
      "inputs": [
        {
          "indexed": true,
          "internalType": "address",
          "name": "from",
          "type": "address"
        },
        {
          "indexed": true,
          "internalType": "address",
          "name": "to",
          "type": "address"
        },
        {
          "indexed": false,
          "internalType": "uint256",
          "name": "amount",
          "type": "uint256"
        },
        {
          "indexed": false,
          "internalType": "uint256",
          "name": "timestamp",
          "type": "uint256"
        }
      ],
      "name": "TokensTransferred",
      "type": "event"
    },
    {
      "anonymous": false,
      "inputs": [
        {
          "indexed": true,
          "internalType": "address",
          "name": "from",
          "type": "address"
        },
        {
          "indexed": true,
          "internalType": "address",
          "name": "to",
          "type": "address"
        },
        {
          "indexed": false,
          "internalType": "uint256",
          "name": "value",
          "type": "uint256"
        }
      ],
      "name": "Transfer",
      "type": "event"
    },
    {
      "inputs": [],
      "name": "ADMIN_ROLE",
      "outputs": [
        {
          "internalType": "bytes32",
          "name": "",
          "type": "bytes32"
        }
      ],
      "stateMutability": "view",
      "type": "function"
    },
    {
      "inputs": [],
      "name": "DEFAULT_ADMIN_ROLE",
      "outputs": [
        {
          "internalType": "bytes32",
          "name": "",
          "type": "bytes32"
        }
      ],
      "stateMutability": "view",
      "type": "function"
    },
    {
      "inputs": [],
      "name": "MINTER_ROLE",
      "outputs": [
        {
          "internalType": "bytes32",
          "name": "",
          "type": "bytes32"
        }
      ],
      "stateMutability": "view",
      "type": "function"
    },
    {
      "inputs": [
        {
          "internalType": "address",
          "name": "owner",
          "type": "address"
        },
        {
          "internalType": "address",
          "name": "spender",
          "type": "address"
        }
      ],
      "name": "allowance",
      "outputs": [
        {
          "internalType": "uint256",
          "name": "",
          "type": "uint256"
        }
      ],
      "stateMutability": "view",
      "type": "function"
    },
    {
      "inputs": [
        {
          "internalType": "address",
          "name": "spender",
          "type": "address"
        },
        {
          "internalType": "uint256",
          "name": "value",
          "type": "uint256"
        }
      ],
      "name": "approve",
      "outputs": [
        {
          "internalType": "bool",
          "name": "",
          "type": "bool"
        }
      ],
      "stateMutability": "nonpayable",
      "type": "function"
    },
    {
      "inputs": [
        {
          "internalType": "address",
          "name": "account",
          "type": "address"
        }
      ],
      "name": "balanceOf",
      "outputs": [
        {
          "internalType": "uint256",
          "name": "",
          "type": "uint256"
        }
      ],
      "stateMutability": "view",
      "type": "function"
    },
    {
      "inputs": [],
      "name": "decimals",
      "outputs": [
        {
          "internalType": "uint8",
          "name": "",
          "type": "uint8"
        }
      ],
      "stateMutability": "view",
      "type": "function"
    },
    {
      "inputs": [],
      "name": "getAllTransactions",
      "outputs": [
        {
          "components": [
            {
              "internalType": "address",
              "name": "from",
              "type": "address"
            },
            {
              "internalType": "address",
              "name": "to",
              "type": "address"
            },
            {
              "internalType": "uint256",
              "name": "tokens",
              "type": "uint256"
            },
            {
              "internalType": "uint256",
              "name": "eth_price_usd",
              "type": "uint256"
            },
            {
              "internalType": "uint256",
              "name": "token_price",
              "type": "uint256"
            },
            {
              "internalType": "uint256",
              "name": "amount",
              "type": "uint256"
            },
            {
              "internalType": "uint256",
              "name": "timestamp",
              "type": "uint256"
            }
          ],
          "internalType": "struct TokenAW3.Transaction[]",
          "name": "",
          "type": "tuple[]"
        }
      ],
      "stateMutability": "view",
      "type": "function"
    },
    {
      "inputs": [
        {
          "internalType": "bytes32",
          "name": "role",
          "type": "bytes32"
        }
      ],
      "name": "getRoleAdmin",
      "outputs": [
        {
          "internalType": "bytes32",
          "name": "",
          "type": "bytes32"
        }
      ],
      "stateMutability": "view",
      "type": "function"
    },
    {
      "inputs": [
        {
          "internalType": "address",
          "name": "account",
          "type": "address"
        }
      ],
      "name": "getTotalReceived",
      "outputs": [
        {
          "internalType": "uint256",
          "name": "",
          "type": "uint256"
        }
      ],
      "stateMutability": "view",
      "type": "function"
    },
    {
      "inputs": [
        {
          "internalType": "address",
          "name": "account",
          "type": "address"
        }
      ],
      "name": "getTotalSent",
      "outputs": [
        {
          "internalType": "uint256",
          "name": "",
          "type": "uint256"
        }
      ],
      "stateMutability": "view",
      "type": "function"
    },
    {
      "inputs": [
        {
          "internalType": "address",
          "name": "contractAddress",
          "type": "address"
        }
      ],
      "name": "grantMinterRole",
      "outputs": [],
      "stateMutability": "nonpayable",
      "type": "function"
    },
    {
      "inputs": [
        {
          "internalType": "bytes32",
          "name": "role",
          "type": "bytes32"
        },
        {
          "internalType": "address",
          "name": "account",
          "type": "address"
        }
      ],
      "name": "grantRole",
      "outputs": [],
      "stateMutability": "nonpayable",
      "type": "function"
    },
    {
      "inputs": [
        {
          "internalType": "bytes32",
          "name": "role",
          "type": "bytes32"
        },
        {
          "internalType": "address",
          "name": "account",
          "type": "address"
        }
      ],
      "name": "hasRole",
      "outputs": [
        {
          "internalType": "bool",
          "name": "",
          "type": "bool"
        }
      ],
      "stateMutability": "view",
      "type": "function"
    },
    {
      "inputs": [
        {
          "internalType": "address",
          "name": "to",
          "type": "address"
        },
        {
          "internalType": "uint256",
          "name": "tokensToMint",
          "type": "uint256"
        },
        {
          "internalType": "uint256",
          "name": "totalValueInWei",
          "type": "uint256"
        },
        {
          "internalType": "uint256",
          "name": "valuePerTokenInWei",
          "type": "uint256"
        }
      ],
      "name": "mint",
      "outputs": [],
      "stateMutability": "nonpayable",
      "type": "function"
    },
    {
      "inputs": [],
      "name": "name",
      "outputs": [
        {
          "internalType": "string",
          "name": "",
          "type": "string"
        }
      ],
      "stateMutability": "view",
      "type": "function"
    },
    {
      "inputs": [
        {
          "internalType": "bytes32",
          "name": "role",
          "type": "bytes32"
        },
        {
          "internalType": "address",
          "name": "callerConfirmation",
          "type": "address"
        }
      ],
      "name": "renounceRole",
      "outputs": [],
      "stateMutability": "nonpayable",
      "type": "function"
    },
    {
      "inputs": [
        {
          "internalType": "bytes32",
          "name": "role",
          "type": "bytes32"
        },
        {
          "internalType": "address",
          "name": "account",
          "type": "address"
        }
      ],
      "name": "revokeRole",
      "outputs": [],
      "stateMutability": "nonpayable",
      "type": "function"
    },
    {
      "inputs": [
        {
          "internalType": "bytes4",
          "name": "interfaceId",
          "type": "bytes4"
        }
      ],
      "name": "supportsInterface",
      "outputs": [
        {
          "internalType": "bool",
          "name": "",
          "type": "bool"
        }
      ],
      "stateMutability": "view",
      "type": "function"
    },
    {
      "inputs": [],
      "name": "symbol",
      "outputs": [
        {
          "internalType": "string",
          "name": "",
          "type": "string"
        }
      ],
      "stateMutability": "view",
      "type": "function"
    },
    {
      "inputs": [],
      "name": "totalSupply",
      "outputs": [
        {
          "internalType": "uint256",
          "name": "",
          "type": "uint256"
        }
      ],
      "stateMutability": "view",
      "type": "function"
    },
    {
      "inputs": [],
      "name": "totalTokensTransferred",
      "outputs": [
        {
          "internalType": "uint256",
          "name": "",
          "type": "uint256"
        }
      ],
      "stateMutability": "view",
      "type": "function"
    },
    {
      "inputs": [
        {
          "internalType": "address",
          "name": "recipient",
          "type": "address"
        },
        {
          "internalType": "uint256",
          "name": "amount",
          "type": "uint256"
        }
      ],
      "name": "transfer",
      "outputs": [
        {
          "internalType": "bool",
          "name": "",
          "type": "bool"
        }
      ],
      "stateMutability": "nonpayable",
      "type": "function"
    },
    {
      "inputs": [
        {
          "internalType": "address",
          "name": "from",
          "type": "address"
        },
        {
          "internalType": "address",
          "name": "to",
          "type": "address"
        },
        {
          "internalType": "uint256",
          "name": "value",
          "type": "uint256"
        }
      ],
      "name": "transferFrom",
      "outputs": [
        {
          "internalType": "bool",
          "name": "",
          "type": "bool"
        }
      ],
      "stateMutability": "nonpayable",
      "type": "function"
    },
    {
      "inputs": [],
      "name": "usdEth",
      "outputs": [
        {
          "internalType": "contract USDTETHPriceQuery",
          "name": "",
          "type": "address"
        }
      ],
      "stateMutability": "view",
      "type": "function"
    }
  ],
  "bytecode": "0x60806040523480156200001157600080fd5b5060405162002a8538038062002a858339818101604052810190620000379190620005d2565b6040518060400160405280602081526020017f54616e676c65776f6f6420526163717565742056696c6c61676520546f6b656e8152506040518060400160405280600381526020017f54525600000000000000000000000000000000000000000000000000000000008152508160039081620000b4919062000874565b508060049081620000c6919062000874565b505050620000de6000801b336200015e60201b60201c565b50620001117f9f2df0fed2c77648de5860a4cc508cd0818c85b8b8a1ab4ceeef8d981c8956a6336200015e60201b60201c565b50620001447fa49807205ce4d355092ef5a8a18f56e8913cf4a201fbe287825b095693c21775336200015e60201b60201c565b506200015733826200026260201b60201c565b5062000a92565b6000620001728383620002ef60201b60201c565b620002575760016005600085815260200190815260200160002060000160008473ffffffffffffffffffffffffffffffffffffffff1673ffffffffffffffffffffffffffffffffffffffff16815260200190815260200160002060006101000a81548160ff021916908315150217905550620001f36200035a60201b60201c565b73ffffffffffffffffffffffffffffffffffffffff168273ffffffffffffffffffffffffffffffffffffffff16847f2f8788117e7eff1d82e926ec794901d17c78024a50270940304540a733656f0d60405160405180910390a4600190506200025c565b600090505b92915050565b600073ffffffffffffffffffffffffffffffffffffffff168273ffffffffffffffffffffffffffffffffffffffff1603620002d75760006040517fec442f05000000000000000000000000000000000000000000000000000000008152600401620002ce9190620009a0565b60405180910390fd5b620002eb600083836200036260201b60201c565b5050565b60006005600084815260200190815260200160002060000160008373ffffffffffffffffffffffffffffffffffffffff1673ffffffffffffffffffffffffffffffffffffffff16815260200190815260200160002060009054906101000a900460ff16905092915050565b600033905090565b600073ffffffffffffffffffffffffffffffffffffffff168373ffffffffffffffffffffffffffffffffffffffff1603620003b8578060026000828254620003ab9190620009ec565b925050819055506200048e565b60008060008573ffffffffffffffffffffffffffffffffffffffff1673ffffffffffffffffffffffffffffffffffffffff1681526020019081526020016000205490508181101562000447578381836040517fe450d38c0000000000000000000000000000000000000000000000000000000081526004016200043e9392919062000a38565b60405180910390fd5b8181036000808673ffffffffffffffffffffffffffffffffffffffff1673ffffffffffffffffffffffffffffffffffffffff16815260200190815260200160002081905550505b600073ffffffffffffffffffffffffffffffffffffffff168273ffffffffffffffffffffffffffffffffffffffff1603620004d9578060026000828254039250508190555062000526565b806000808473ffffffffffffffffffffffffffffffffffffffff1673ffffffffffffffffffffffffffffffffffffffff168152602001908152602001600020600082825401925050819055505b8173ffffffffffffffffffffffffffffffffffffffff168373ffffffffffffffffffffffffffffffffffffffff167fddf252ad1be2c89b69c2b068fc378daa952ba7f163c4a11628f55a4df523b3ef8360405162000585919062000a75565b60405180910390a3505050565b600080fd5b6000819050919050565b620005ac8162000597565b8114620005b857600080fd5b50565b600081519050620005cc81620005a1565b92915050565b600060208284031215620005eb57620005ea62000592565b5b6000620005fb84828501620005bb565b91505092915050565b600081519050919050565b7f4e487b7100000000000000000000000000000000000000000000000000000000600052604160045260246000fd5b7f4e487b7100000000000000000000000000000000000000000000000000000000600052602260045260246000fd5b600060028204905060018216806200068657607f821691505b6020821081036200069c576200069b6200063e565b5b50919050565b60008190508160005260206000209050919050565b60006020601f8301049050919050565b600082821b905092915050565b600060088302620007067fffffffffffffffffffffffffffffffffffffffffffffffffffffffffffffffff82620006c7565b620007128683620006c7565b95508019841693508086168417925050509392505050565b6000819050919050565b6000620007556200074f620007498462000597565b6200072a565b62000597565b9050919050565b6000819050919050565b620007718362000734565b6200078962000780826200075c565b848454620006d4565b825550505050565b600090565b620007a062000791565b620007ad81848462000766565b505050565b5b81811015620007d557620007c960008262000796565b600181019050620007b3565b5050565b601f8211156200082457620007ee81620006a2565b620007f984620006b7565b8101602085101562000809578190505b620008216200081885620006b7565b830182620007b2565b50505b505050565b600082821c905092915050565b6000620008496000198460080262000829565b1980831691505092915050565b600062000864838362000836565b9150826002028217905092915050565b6200087f8262000604565b67ffffffffffffffff8111156200089b576200089a6200060f565b5b620008a782546200066d565b620008b4828285620007d9565b600060209050601f831160018114620008ec5760008415620008d7578287015190505b620008e3858262000856565b86555062000953565b601f198416620008fc86620006a2565b60005b828110156200092657848901518255600182019150602085019450602081019050620008ff565b8683101562000946578489015162000942601f89168262000836565b8355505b6001600288020188555050505b505050505050565b600073ffffffffffffffffffffffffffffffffffffffff82169050919050565b600062000988826200095b565b9050919050565b6200099a816200097b565b82525050565b6000602082019050620009b760008301846200098f565b92915050565b7f4e487b7100000000000000000000000000000000000000000000000000000000600052601160045260246000fd5b6000620009f98262000597565b915062000a068362000597565b925082820190508082111562000a215762000a20620009bd565b5b92915050565b62000a328162000597565b82525050565b600060608201905062000a4f60008301866200098f565b62000a5e602083018562000a27565b62000a6d604083018462000a27565b949350505050565b600060208201905062000a8c600083018462000a27565b92915050565b611fe38062000aa26000396000f3fe608060405234801561001057600080fd5b50600436106101585760003560e01c806370a08231116100c3578063a217fddf1161007c578063a217fddf14610401578063a9059cbb1461041f578063d53913931461044f578063d547741f1461046d578063dd62ed3e14610489578063ed7d506c146104b957610158565b806370a082311461030557806375b238fc14610335578063806c0b2b1461035357806385823d0c1461038357806391d14854146103b357806395d89b41146103e357610158565b806327506f531161011557806327506f53146102595780632f2ff15d14610277578063313ce5671461029357806336568abe146102b15780633dd1eb61146102cd57806340c10f19146102e957610158565b806301ffc9a71461015d57806306fdde031461018d578063095ea7b3146101ab57806318160ddd146101db57806323b872dd146101f9578063248a9ca314610229575b600080fd5b6101776004803603810190610172919061191c565b6104d7565b6040516101849190611964565b60405180910390f35b610195610551565b6040516101a29190611a0f565b60405180910390f35b6101c560048036038101906101c09190611ac5565b6105e3565b6040516101d29190611964565b60405180910390f35b6101e3610606565b6040516101f09190611b14565b60405180910390f35b610213600480360381019061020e9190611b2f565b610610565b6040516102209190611964565b60405180910390f35b610243600480360381019061023e9190611bb8565b61063f565b6040516102509190611bf4565b60405180910390f35b61026161065f565b60405161026e9190611d31565b60405180910390f35b610291600480360381019061028c9190611d53565b61077e565b005b61029b6107a0565b6040516102a89190611daf565b60405180910390f35b6102cb60048036038101906102c69190611d53565b6107a9565b005b6102e760048036038101906102e29190611dca565b610824565b005b61030360048036038101906102fe9190611ac5565b61087c565b005b61031f600480360381019061031a9190611dca565b610a7e565b60405161032c9190611b14565b60405180910390f35b61033d610ac6565b60405161034a9190611bf4565b60405180910390f35b61036d60048036038101906103689190611dca565b610aea565b60405161037a9190611b14565b60405180910390f35b61039d60048036038101906103989190611dca565b610b33565b6040516103aa9190611b14565b60405180910390f35b6103cd60048036038101906103c89190611d53565b610b7c565b6040516103da9190611964565b60405180910390f35b6103eb610be7565b6040516103f89190611a0f565b60405180910390f35b610409610c79565b6040516104169190611bf4565b60405180910390f35b61043960048036038101906104349190611ac5565b610c80565b6040516104469190611964565b60405180910390f35b610457610ef5565b6040516104649190611bf4565b60405180910390f35b61048760048036038101906104829190611d53565b610f19565b005b6104a3600480360381019061049e9190611df7565b610f3b565b6040516104b09190611b14565b60405180910390f35b6104c1610fc2565b6040516104ce9190611b14565b60405180910390f35b60007f7965db0b000000000000000000000000000000000000000000000000000000007bffffffffffffffffffffffffffffffffffffffffffffffffffffffff1916827bffffffffffffffffffffffffffffffffffffffffffffffffffffffff1916148061054a575061054982610fc8565b5b9050919050565b60606003805461056090611e66565b80601f016020809104026020016040519081016040528092919081815260200182805461058c90611e66565b80156105d95780601f106105ae576101008083540402835291602001916105d9565b820191906000526020600020905b8154815290600101906020018083116105bc57829003601f168201915b5050505050905090565b6000806105ee611032565b90506105fb81858561103a565b600191505092915050565b6000600254905090565b60008061061b611032565b905061062885828561104c565b6106338585856110e0565b60019150509392505050565b600060056000838152602001908152602001600020600101549050919050565b60606006805480602002602001604051908101604052809291908181526020016000905b8282101561077557838290600052602060002090600402016040518060800160405290816000820160009054906101000a900473ffffffffffffffffffffffffffffffffffffffff1673ffffffffffffffffffffffffffffffffffffffff1673ffffffffffffffffffffffffffffffffffffffff1681526020016001820160009054906101000a900473ffffffffffffffffffffffffffffffffffffffff1673ffffffffffffffffffffffffffffffffffffffff1673ffffffffffffffffffffffffffffffffffffffff1681526020016002820154815260200160038201548152505081526020019060010190610683565b50505050905090565b6107878261063f565b610790816111d4565b61079a83836111e8565b50505050565b60006012905090565b6107b1611032565b73ffffffffffffffffffffffffffffffffffffffff168173ffffffffffffffffffffffffffffffffffffffff1614610815576040517f6697b23200000000000000000000000000000000000000000000000000000000815260040160405180910390fd5b61081f82826112da565b505050565b7fa49807205ce4d355092ef5a8a18f56e8913cf4a201fbe287825b095693c2177561084e816111d4565b6108787f9f2df0fed2c77648de5860a4cc508cd0818c85b8b8a1ab4ceeef8d981c8956a68361077e565b5050565b61088682826113cd565b8173ffffffffffffffffffffffffffffffffffffffff16600073ffffffffffffffffffffffffffffffffffffffff167f822a0f1c29fca2c743650969736c315e9c7dc38972549bc35637169f07de976983426040516108e6929190611e97565b60405180910390a380600860008473ffffffffffffffffffffffffffffffffffffffff1673ffffffffffffffffffffffffffffffffffffffff168152602001908152602001600020600082825461093d9190611eef565b9250508190555080600960008282546109569190611eef565b9250508190555060066040518060800160405280600073ffffffffffffffffffffffffffffffffffffffff1681526020018473ffffffffffffffffffffffffffffffffffffffff16815260200183815260200142815250908060018154018082558091505060019003906000526020600020906004020160009091909190915060008201518160000160006101000a81548173ffffffffffffffffffffffffffffffffffffffff021916908373ffffffffffffffffffffffffffffffffffffffff16021790555060208201518160010160006101000a81548173ffffffffffffffffffffffffffffffffffffffff021916908373ffffffffffffffffffffffffffffffffffffffff160217905550604082015181600201556060820151816003015550505050565b60008060008373ffffffffffffffffffffffffffffffffffffffff1673ffffffffffffffffffffffffffffffffffffffff168152602001908152602001600020549050919050565b7fa49807205ce4d355092ef5a8a18f56e8913cf4a201fbe287825b095693c2177581565b6000600760008373ffffffffffffffffffffffffffffffffffffffff1673ffffffffffffffffffffffffffffffffffffffff168152602001908152602001600020549050919050565b6000600860008373ffffffffffffffffffffffffffffffffffffffff1673ffffffffffffffffffffffffffffffffffffffff168152602001908152602001600020549050919050565b60006005600084815260200190815260200160002060000160008373ffffffffffffffffffffffffffffffffffffffff1673ffffffffffffffffffffffffffffffffffffffff16815260200190815260200160002060009054906101000a900460ff16905092915050565b606060048054610bf690611e66565b80601f0160208091040260200160405190810160405280929190818152602001828054610c2290611e66565b8015610c6f5780601f10610c4457610100808354040283529160200191610c6f565b820191906000526020600020905b815481529060010190602001808311610c5257829003601f168201915b5050505050905090565b6000801b81565b600080610c8b611032565b90506000610c99858561144f565b90508015610eea578473ffffffffffffffffffffffffffffffffffffffff168273ffffffffffffffffffffffffffffffffffffffff167f822a0f1c29fca2c743650969736c315e9c7dc38972549bc35637169f07de97698642604051610d00929190611e97565b60405180910390a383600760008473ffffffffffffffffffffffffffffffffffffffff1673ffffffffffffffffffffffffffffffffffffffff1681526020019081526020016000206000828254610d579190611eef565b9250508190555083600860008773ffffffffffffffffffffffffffffffffffffffff1673ffffffffffffffffffffffffffffffffffffffff1681526020019081526020016000206000828254610dad9190611eef565b925050819055508360096000828254610dc69190611eef565b92505081905550600660405180608001604052808473ffffffffffffffffffffffffffffffffffffffff1681526020018773ffffffffffffffffffffffffffffffffffffffff16815260200186815260200142815250908060018154018082558091505060019003906000526020600020906004020160009091909190915060008201518160000160006101000a81548173ffffffffffffffffffffffffffffffffffffffff021916908373ffffffffffffffffffffffffffffffffffffffff16021790555060208201518160010160006101000a81548173ffffffffffffffffffffffffffffffffffffffff021916908373ffffffffffffffffffffffffffffffffffffffff160217905550604082015181600201556060820151816003015550505b809250505092915050565b7f9f2df0fed2c77648de5860a4cc508cd0818c85b8b8a1ab4ceeef8d981c8956a681565b610f228261063f565b610f2b816111d4565b610f3583836112da565b50505050565b6000600160008473ffffffffffffffffffffffffffffffffffffffff1673ffffffffffffffffffffffffffffffffffffffff16815260200190815260200160002060008373ffffffffffffffffffffffffffffffffffffffff1673ffffffffffffffffffffffffffffffffffffffff16815260200190815260200160002054905092915050565b60095481565b60007f01ffc9a7000000000000000000000000000000000000000000000000000000007bffffffffffffffffffffffffffffffffffffffffffffffffffffffff1916827bffffffffffffffffffffffffffffffffffffffffffffffffffffffff1916149050919050565b600033905090565b6110478383836001611472565b505050565b60006110588484610f3b565b90507fffffffffffffffffffffffffffffffffffffffffffffffffffffffffffffffff81146110da57818110156110ca578281836040517ffb8f41b20000000000000000000000000000000000000000000000000000000081526004016110c193929190611f32565b60405180910390fd5b6110d984848484036000611472565b5b50505050565b600073ffffffffffffffffffffffffffffffffffffffff168373ffffffffffffffffffffffffffffffffffffffff16036111525760006040517f96c6fd1e0000000000000000000000000000000000000000000000000000000081526004016111499190611f69565b60405180910390fd5b600073ffffffffffffffffffffffffffffffffffffffff168273ffffffffffffffffffffffffffffffffffffffff16036111c45760006040517fec442f050000000000000000000000000000000000000000000000000000000081526004016111bb9190611f69565b60405180910390fd5b6111cf838383611649565b505050565b6111e5816111e0611032565b61186e565b50565b60006111f48383610b7c565b6112cf5760016005600085815260200190815260200160002060000160008473ffffffffffffffffffffffffffffffffffffffff1673ffffffffffffffffffffffffffffffffffffffff16815260200190815260200160002060006101000a81548160ff02191690831515021790555061126c611032565b73ffffffffffffffffffffffffffffffffffffffff168273ffffffffffffffffffffffffffffffffffffffff16847f2f8788117e7eff1d82e926ec794901d17c78024a50270940304540a733656f0d60405160405180910390a4600190506112d4565b600090505b92915050565b60006112e68383610b7c565b156113c25760006005600085815260200190815260200160002060000160008473ffffffffffffffffffffffffffffffffffffffff1673ffffffffffffffffffffffffffffffffffffffff16815260200190815260200160002060006101000a81548160ff02191690831515021790555061135f611032565b73ffffffffffffffffffffffffffffffffffffffff168273ffffffffffffffffffffffffffffffffffffffff16847ff6391f5c32d9c69d2a47ea670b442974b53935d1edc7fd64eb21e047a839171b60405160405180910390a4600190506113c7565b600090505b92915050565b600073ffffffffffffffffffffffffffffffffffffffff168273ffffffffffffffffffffffffffffffffffffffff160361143f5760006040517fec442f050000000000000000000000000000000000000000000000000000000081526004016114369190611f69565b60405180910390fd5b61144b60008383611649565b5050565b60008061145a611032565b90506114678185856110e0565b600191505092915050565b600073ffffffffffffffffffffffffffffffffffffffff168473ffffffffffffffffffffffffffffffffffffffff16036114e45760006040517fe602df050000000000000000000000000000000000000000000000000000000081526004016114db9190611f69565b60405180910390fd5b600073ffffffffffffffffffffffffffffffffffffffff168373ffffffffffffffffffffffffffffffffffffffff16036115565760006040517f94280d6200000000000000000000000000000000000000000000000000000000815260040161154d9190611f69565b60405180910390fd5b81600160008673ffffffffffffffffffffffffffffffffffffffff1673ffffffffffffffffffffffffffffffffffffffff16815260200190815260200160002060008573ffffffffffffffffffffffffffffffffffffffff1673ffffffffffffffffffffffffffffffffffffffff168152602001908152602001600020819055508015611643578273ffffffffffffffffffffffffffffffffffffffff168473ffffffffffffffffffffffffffffffffffffffff167f8c5be1e5ebec7d5bd14f71427d1e84f3dd0314c0f7b2291e5b200ac8c7c3b9258460405161163a9190611b14565b60405180910390a35b50505050565b600073ffffffffffffffffffffffffffffffffffffffff168373ffffffffffffffffffffffffffffffffffffffff160361169b57806002600082825461168f9190611eef565b9250508190555061176e565b60008060008573ffffffffffffffffffffffffffffffffffffffff1673ffffffffffffffffffffffffffffffffffffffff16815260200190815260200160002054905081811015611727578381836040517fe450d38c00000000000000000000000000000000000000000000000000000000815260040161171e93929190611f32565b60405180910390fd5b8181036000808673ffffffffffffffffffffffffffffffffffffffff1673ffffffffffffffffffffffffffffffffffffffff16815260200190815260200160002081905550505b600073ffffffffffffffffffffffffffffffffffffffff168273ffffffffffffffffffffffffffffffffffffffff16036117b75780600260008282540392505081905550611804565b806000808473ffffffffffffffffffffffffffffffffffffffff1673ffffffffffffffffffffffffffffffffffffffff168152602001908152602001600020600082825401925050819055505b8173ffffffffffffffffffffffffffffffffffffffff168373ffffffffffffffffffffffffffffffffffffffff167fddf252ad1be2c89b69c2b068fc378daa952ba7f163c4a11628f55a4df523b3ef836040516118619190611b14565b60405180910390a3505050565b6118788282610b7c565b6118bb5780826040517fe2517d3f0000000000000000000000000000000000000000000000000000000081526004016118b2929190611f84565b60405180910390fd5b5050565b600080fd5b60007fffffffff0000000000000000000000000000000000000000000000000000000082169050919050565b6118f9816118c4565b811461190457600080fd5b50565b600081359050611916816118f0565b92915050565b600060208284031215611932576119316118bf565b5b600061194084828501611907565b91505092915050565b60008115159050919050565b61195e81611949565b82525050565b60006020820190506119796000830184611955565b92915050565b600081519050919050565b600082825260208201905092915050565b60005b838110156119b957808201518184015260208101905061199e565b60008484015250505050565b6000601f19601f8301169050919050565b60006119e18261197f565b6119eb818561198a565b93506119fb81856020860161199b565b611a04816119c5565b840191505092915050565b60006020820190508181036000830152611a2981846119d6565b905092915050565b600073ffffffffffffffffffffffffffffffffffffffff82169050919050565b6000611a5c82611a31565b9050919050565b611a6c81611a51565b8114611a7757600080fd5b50565b600081359050611a8981611a63565b92915050565b6000819050919050565b611aa281611a8f565b8114611aad57600080fd5b50565b600081359050611abf81611a99565b92915050565b60008060408385031215611adc57611adb6118bf565b5b6000611aea85828601611a7a565b9250506020611afb85828601611ab0565b9150509250929050565b611b0e81611a8f565b82525050565b6000602082019050611b296000830184611b05565b92915050565b600080600060608486031215611b4857611b476118bf565b5b6000611b5686828701611a7a565b9350506020611b6786828701611a7a565b9250506040611b7886828701611ab0565b9150509250925092565b6000819050919050565b611b9581611b82565b8114611ba057600080fd5b50565b600081359050611bb281611b8c565b92915050565b600060208284031215611bce57611bcd6118bf565b5b6000611bdc84828501611ba3565b91505092915050565b611bee81611b82565b82525050565b6000602082019050611c096000830184611be5565b92915050565b600081519050919050565b600082825260208201905092915050565b6000819050602082019050919050565b611c4481611a51565b82525050565b611c5381611a8f565b82525050565b608082016000820151611c6f6000850182611c3b565b506020820151611c826020850182611c3b565b506040820151611c956040850182611c4a565b506060820151611ca86060850182611c4a565b50505050565b6000611cba8383611c59565b60808301905092915050565b6000602082019050919050565b6000611cde82611c0f565b611ce88185611c1a565b9350611cf383611c2b565b8060005b83811015611d24578151611d0b8882611cae565b9750611d1683611cc6565b925050600181019050611cf7565b5085935050505092915050565b60006020820190508181036000830152611d4b8184611cd3565b905092915050565b60008060408385031215611d6a57611d696118bf565b5b6000611d7885828601611ba3565b9250506020611d8985828601611a7a565b9150509250929050565b600060ff82169050919050565b611da981611d93565b82525050565b6000602082019050611dc46000830184611da0565b92915050565b600060208284031215611de057611ddf6118bf565b5b6000611dee84828501611a7a565b91505092915050565b60008060408385031215611e0e57611e0d6118bf565b5b6000611e1c85828601611a7a565b9250506020611e2d85828601611a7a565b9150509250929050565b7f4e487b7100000000000000000000000000000000000000000000000000000000600052602260045260246000fd5b60006002820490506001821680611e7e57607f821691505b602082108103611e9157611e90611e37565b5b50919050565b6000604082019050611eac6000830185611b05565b611eb96020830184611b05565b9392505050565b7f4e487b7100000000000000000000000000000000000000000000000000000000600052601160045260246000fd5b6000611efa82611a8f565b9150611f0583611a8f565b9250828201905080821115611f1d57611f1c611ec0565b5b92915050565b611f2c81611a51565b82525050565b6000606082019050611f476000830186611f23565b611f546020830185611b05565b611f616040830184611b05565b949350505050565b6000602082019050611f7e6000830184611f23565b92915050565b6000604082019050611f996000830185611f23565b611fa66020830184611be5565b939250505056fea2646970667358221220c26f1fa6c8d54e74f7e6cca83d433290c7ea2ac80aafd1f49e8b937c66977b8364736f6c63430008180033",
  "linkReferences": {},
  "deployedLinkReferences": {}
}